{
  "address": "0x1324A5E1A502503B0E6aAC8B5830790417E29E4F",
  "abi": [
    {
      "inputs": [],
      "stateMutability": "nonpayable",
      "type": "constructor"
    },
    {
      "anonymous": false,
      "inputs": [
        {
          "indexed": true,
          "internalType": "address",
          "name": "owner",
          "type": "address"
        },
        {
          "indexed": true,
          "internalType": "address",
          "name": "approved",
          "type": "address"
        },
        {
          "indexed": true,
          "internalType": "uint256",
          "name": "tokenId",
          "type": "uint256"
        }
      ],
      "name": "Approval",
      "type": "event"
    },
    {
      "anonymous": false,
      "inputs": [
        {
          "indexed": true,
          "internalType": "address",
          "name": "owner",
          "type": "address"
        },
        {
          "indexed": true,
          "internalType": "address",
          "name": "operator",
          "type": "address"
        },
        {
          "indexed": false,
          "internalType": "bool",
          "name": "approved",
          "type": "bool"
        }
      ],
      "name": "ApprovalForAll",
      "type": "event"
    },
    {
      "anonymous": false,
      "inputs": [
        {
          "indexed": false,
          "internalType": "uint256",
          "name": "_fromTokenId",
          "type": "uint256"
        },
        {
          "indexed": false,
          "internalType": "uint256",
          "name": "_toTokenId",
          "type": "uint256"
        }
      ],
      "name": "BatchMetadataUpdate",
      "type": "event"
    },
    {
      "anonymous": false,
      "inputs": [
        {
          "indexed": false,
          "internalType": "uint256",
          "name": "_tokenId",
          "type": "uint256"
        }
      ],
      "name": "MetadataUpdate",
      "type": "event"
    },
    {
      "anonymous": false,
      "inputs": [
        {
          "indexed": true,
          "internalType": "address",
          "name": "from",
          "type": "address"
        },
        {
          "indexed": true,
          "internalType": "address",
          "name": "to",
          "type": "address"
        },
        {
          "indexed": true,
          "internalType": "uint256",
          "name": "tokenId",
          "type": "uint256"
        }
      ],
      "name": "Transfer",
      "type": "event"
    },
    {
      "inputs": [
        {
          "internalType": "uint256",
          "name": "tokenId",
          "type": "uint256"
        }
      ],
      "name": "BuyNFT",
      "outputs": [],
      "stateMutability": "payable",
      "type": "function"
    },
    {
      "inputs": [
        {
          "internalType": "uint256",
          "name": "",
          "type": "uint256"
        }
      ],
      "name": "COMMENT",
      "outputs": [
        {
          "internalType": "string",
          "name": "comment",
          "type": "string"
        }
      ],
      "stateMutability": "view",
      "type": "function"
    },
    {
      "inputs": [
        {
          "internalType": "uint256",
          "name": "",
          "type": "uint256"
        }
      ],
      "name": "ListedNFT",
      "outputs": [
        {
          "internalType": "address",
          "name": "tokenOwner",
          "type": "address"
        },
        {
          "internalType": "uint256",
          "name": "tokenId",
          "type": "uint256"
        },
        {
          "internalType": "string",
          "name": "tokenURL",
          "type": "string"
        },
        {
          "internalType": "uint256",
          "name": "tokenPrice",
          "type": "uint256"
        }
      ],
      "stateMutability": "view",
      "type": "function"
    },
    {
      "inputs": [],
      "name": "NFTlistingFee",
      "outputs": [
        {
          "internalType": "uint256",
          "name": "",
          "type": "uint256"
        }
      ],
      "stateMutability": "view",
      "type": "function"
    },
    {
      "inputs": [
        {
          "internalType": "address",
          "name": "",
          "type": "address"
        },
        {
          "internalType": "uint256",
          "name": "",
          "type": "uint256"
        }
      ],
      "name": "UserNFTDetails",
      "outputs": [
        {
          "internalType": "uint256",
          "name": "tokenId",
          "type": "uint256"
        },
        {
          "internalType": "uint256",
          "name": "tokenPrice",
          "type": "uint256"
        },
        {
          "internalType": "string",
          "name": "tokenURL",
          "type": "string"
        }
      ],
      "stateMutability": "view",
      "type": "function"
    },
    {
      "inputs": [
        {
          "internalType": "uint256",
          "name": "",
          "type": "uint256"
        }
      ],
      "name": "allUserNFT",
      "outputs": [
        {
          "internalType": "uint256",
          "name": "tokenId",
          "type": "uint256"
        },
        {
          "internalType": "uint256",
          "name": "tokenPrice",
          "type": "uint256"
        },
        {
          "internalType": "string",
          "name": "tokenURL",
          "type": "string"
        }
      ],
      "stateMutability": "view",
      "type": "function"
    },
    {
      "inputs": [
        {
          "internalType": "address",
          "name": "to",
          "type": "address"
        },
        {
          "internalType": "uint256",
          "name": "tokenId",
          "type": "uint256"
        }
      ],
      "name": "approve",
      "outputs": [],
      "stateMutability": "nonpayable",
      "type": "function"
    },
    {
      "inputs": [
        {
          "internalType": "address",
          "name": "owner",
          "type": "address"
        }
      ],
      "name": "balanceOf",
      "outputs": [
        {
          "internalType": "uint256",
          "name": "",
          "type": "uint256"
        }
      ],
      "stateMutability": "view",
      "type": "function"
    },
    {
      "inputs": [
        {
          "internalType": "uint256",
          "name": "",
          "type": "uint256"
        },
        {
          "internalType": "uint256",
          "name": "",
          "type": "uint256"
        }
      ],
      "name": "commenting",
      "outputs": [
        {
          "internalType": "string",
          "name": "comment",
          "type": "string"
        }
      ],
      "stateMutability": "view",
      "type": "function"
    },
    {
      "inputs": [
        {
          "internalType": "string",
          "name": "tokenURI",
          "type": "string"
        },
        {
          "internalType": "uint256",
          "name": "price",
          "type": "uint256"
        }
      ],
      "name": "createTokenNFT",
      "outputs": [
        {
          "internalType": "uint256",
          "name": "",
          "type": "uint256"
        }
      ],
      "stateMutability": "payable",
      "type": "function"
    },
    {
      "inputs": [
        {
          "internalType": "uint256",
          "name": "tokenId",
          "type": "uint256"
        },
        {
          "internalType": "string",
          "name": "comment",
          "type": "string"
        }
      ],
      "name": "enterComment",
      "outputs": [],
      "stateMutability": "nonpayable",
      "type": "function"
    },
    {
      "inputs": [],
      "name": "getAllNFT",
      "outputs": [
        {
          "internalType": "address[]",
          "name": "",
          "type": "address[]"
        },
        {
          "internalType": "uint256[]",
          "name": "",
          "type": "uint256[]"
        },
        {
          "internalType": "string[]",
          "name": "",
          "type": "string[]"
        },
        {
          "internalType": "uint256[]",
          "name": "",
          "type": "uint256[]"
        }
      ],
      "stateMutability": "view",
      "type": "function"
    },
    {
      "inputs": [
        {
          "internalType": "uint256",
          "name": "tokenId",
          "type": "uint256"
        }
      ],
      "name": "getApproved",
      "outputs": [
        {
          "internalType": "address",
          "name": "",
          "type": "address"
        }
      ],
      "stateMutability": "view",
      "type": "function"
    },
    {
      "inputs": [],
      "name": "getMyNFT",
      "outputs": [
        {
          "components": [
            {
              "internalType": "uint256",
              "name": "tokenId",
              "type": "uint256"
            },
            {
              "internalType": "uint256",
              "name": "tokenPrice",
              "type": "uint256"
            },
            {
              "internalType": "string",
              "name": "tokenURL",
              "type": "string"
            }
          ],
          "internalType": "struct SocialNetworkDapp.UserNFT[]",
          "name": "",
          "type": "tuple[]"
        }
      ],
      "stateMutability": "view",
      "type": "function"
    },
    {
      "inputs": [],
      "name": "getNFTListingFee",
      "outputs": [
        {
          "internalType": "uint256",
          "name": "",
          "type": "uint256"
        }
      ],
      "stateMutability": "view",
      "type": "function"
    },
    {
      "inputs": [
        {
          "internalType": "address",
          "name": "owner",
          "type": "address"
        },
        {
          "internalType": "address",
          "name": "operator",
          "type": "address"
        }
      ],
      "name": "isApprovedForAll",
      "outputs": [
        {
          "internalType": "bool",
          "name": "",
          "type": "bool"
        }
      ],
      "stateMutability": "view",
      "type": "function"
    },
    {
      "inputs": [],
      "name": "name",
      "outputs": [
        {
          "internalType": "string",
          "name": "",
          "type": "string"
        }
      ],
      "stateMutability": "view",
      "type": "function"
    },
    {
      "inputs": [],
      "name": "nftTokenId",
      "outputs": [
        {
          "internalType": "uint256",
          "name": "",
          "type": "uint256"
        }
      ],
      "stateMutability": "view",
      "type": "function"
    },
    {
      "inputs": [
        {
          "internalType": "uint256",
          "name": "tokenId",
          "type": "uint256"
        }
      ],
      "name": "ownerOf",
      "outputs": [
        {
          "internalType": "address",
          "name": "",
          "type": "address"
        }
      ],
      "stateMutability": "view",
      "type": "function"
    },
    {
      "inputs": [
        {
          "internalType": "address",
          "name": "from",
          "type": "address"
        },
        {
          "internalType": "address",
          "name": "to",
          "type": "address"
        },
        {
          "internalType": "uint256",
          "name": "tokenId",
          "type": "uint256"
        }
      ],
      "name": "safeTransferFrom",
      "outputs": [],
      "stateMutability": "nonpayable",
      "type": "function"
    },
    {
      "inputs": [
        {
          "internalType": "address",
          "name": "from",
          "type": "address"
        },
        {
          "internalType": "address",
          "name": "to",
          "type": "address"
        },
        {
          "internalType": "uint256",
          "name": "tokenId",
          "type": "uint256"
        },
        {
          "internalType": "bytes",
          "name": "data",
          "type": "bytes"
        }
      ],
      "name": "safeTransferFrom",
      "outputs": [],
      "stateMutability": "nonpayable",
      "type": "function"
    },
    {
      "inputs": [
        {
          "internalType": "address",
          "name": "operator",
          "type": "address"
        },
        {
          "internalType": "bool",
          "name": "approved",
          "type": "bool"
        }
      ],
      "name": "setApprovalForAll",
      "outputs": [],
      "stateMutability": "nonpayable",
      "type": "function"
    },
    {
      "inputs": [
        {
          "internalType": "bytes4",
          "name": "interfaceId",
          "type": "bytes4"
        }
      ],
      "name": "supportsInterface",
      "outputs": [
        {
          "internalType": "bool",
          "name": "",
          "type": "bool"
        }
      ],
      "stateMutability": "view",
      "type": "function"
    },
    {
      "inputs": [],
      "name": "symbol",
      "outputs": [
        {
          "internalType": "string",
          "name": "",
          "type": "string"
        }
      ],
      "stateMutability": "view",
      "type": "function"
    },
    {
      "inputs": [
        {
          "internalType": "uint256",
          "name": "",
          "type": "uint256"
        }
      ],
      "name": "tokenBuyDetails",
      "outputs": [
        {
          "internalType": "address payable",
          "name": "owner",
          "type": "address"
        },
        {
          "internalType": "string",
          "name": "tokenURL",
          "type": "string"
        },
        {
          "internalType": "uint256",
          "name": "price",
          "type": "uint256"
        }
      ],
      "stateMutability": "view",
      "type": "function"
    },
    {
      "inputs": [
        {
          "internalType": "uint256",
          "name": "tokenId",
          "type": "uint256"
        }
      ],
      "name": "tokenURI",
      "outputs": [
        {
          "internalType": "string",
          "name": "",
          "type": "string"
        }
      ],
      "stateMutability": "view",
      "type": "function"
    },
    {
      "inputs": [
        {
          "internalType": "address",
          "name": "from",
          "type": "address"
        },
        {
          "internalType": "address",
          "name": "to",
          "type": "address"
        },
        {
          "internalType": "uint256",
          "name": "tokenId",
          "type": "uint256"
        }
      ],
      "name": "transferFrom",
      "outputs": [],
      "stateMutability": "nonpayable",
      "type": "function"
    },
    {
      "inputs": [
        {
          "internalType": "uint256",
          "name": "tokenId",
          "type": "uint256"
        }
      ],
      "name": "viewComment",
      "outputs": [
        {
          "components": [
            {
              "internalType": "string",
              "name": "comment",
              "type": "string"
            }
          ],
          "internalType": "struct SocialNetworkDapp.comments[]",
          "name": "",
          "type": "tuple[]"
        }
      ],
      "stateMutability": "view",
      "type": "function"
    }
  ],
  "transactionHash": "0xdee8e86783f8ba5a90695900d99aebe4ff7bba22cc7a2ee2d5ba38b72a94e309",
  "args": [],
  "numDeployments": 8,
  "solcInputHash": "3eb37f624f263c8e402adb72ac439d0a",
  "bytecode": "0x60c0604052600a60a0908152503480156200001957600080fd5b506040518060400160405280600681526020017f4e465470696300000000000000000000000000000000000000000000000000008152506040518060400160405280600481526020017f4e4654500000000000000000000000000000000000000000000000000000000081525081600090805190602001906200009e929190620000f7565b508060019080519060200190620000b7929190620000f7565b5050503373ffffffffffffffffffffffffffffffffffffffff1660808173ffffffffffffffffffffffffffffffffffffffff1660601b815250506200020c565b8280546200010590620001a7565b90600052602060002090601f01602090048101928262000129576000855562000175565b82601f106200014457805160ff191683800117855562000175565b8280016001018555821562000175579182015b828111156200017457825182559160200191906001019062000157565b5b50905062000184919062000188565b5090565b5b80821115620001a357600081600090555060010162000189565b5090565b60006002820490506001821680620001c057607f821691505b60208210811415620001d757620001d6620001dd565b5b50919050565b7f4e487b7100000000000000000000000000000000000000000000000000000000600052602260045260246000fd5b60805160601c60a0516146386200024060003960008181610a0501528181610cd701526111e50152600050506146386000f3fe6080604052600436106101b75760003560e01c8063a22cb465116100ec578063c87b56dd1161008a578063da530db311610064578063da530db314610667578063da8b58c4146106a6578063e985e9c5146106e5578063f3b1633d14610722576101b7565b8063c87b56dd146105c2578063cad7d033146105ff578063d4df22aa1461062a576101b7565b8063ab1afd17116100c6578063ab1afd17146104ec578063b1e79fb91461052c578063b88d4fde14610569578063c78d68f314610592576101b7565b8063a22cb4651461046a578063a37365e014610493578063a872c300146104af576101b7565b806360de43351161015957806370a082311161013357806370a08231146103ac5780637e830574146103e95780638d30e4f81461041457806395d89b411461043f576101b7565b806360de4335146103075780636352211e146103465780637008019a14610383576101b7565b8063095ea7b311610195578063095ea7b31461026157806323b872dd1461028a5780632c1f3124146102b357806342842e0e146102de576101b7565b806301ffc9a7146101bc57806306fdde03146101f9578063081812fc14610224575b600080fd5b3480156101c857600080fd5b506101e360048036038101906101de91906132e4565b610750565b6040516101f09190613bf8565b60405180910390f35b34801561020557600080fd5b5061020e6107b1565b60405161021b9190613c13565b60405180910390f35b34801561023057600080fd5b5061024b6004803603810190610246919061339a565b610843565b6040516102589190613a62565b60405180910390f35b34801561026d57600080fd5b50610288600480360381019061028391906132a4565b610889565b005b34801561029657600080fd5b506102b160048036038101906102ac919061318e565b6109a1565b005b3480156102bf57600080fd5b506102c8610a01565b6040516102d59190613db5565b60405180910390f35b3480156102ea57600080fd5b506103056004803603810190610300919061318e565b610a29565b005b34801561031357600080fd5b5061032e6004803603810190610329919061339a565b610a49565b60405161033d93929190613a7d565b60405180910390f35b34801561035257600080fd5b5061036d6004803603810190610368919061339a565b610b1b565b60405161037a9190613a62565b60405180910390f35b34801561038f57600080fd5b506103aa60048036038101906103a591906133c7565b610ba2565b005b3480156103b857600080fd5b506103d360048036038101906103ce9190613121565b610c0c565b6040516103e09190613db5565b60405180910390f35b3480156103f557600080fd5b506103fe610cc4565b60405161040b9190613db5565b60405180910390f35b34801561042057600080fd5b50610429610cd5565b6040516104369190613db5565b60405180910390f35b34801561044b57600080fd5b50610454610cf9565b6040516104619190613c13565b60405180910390f35b34801561047657600080fd5b50610491600480360381019061048c9190613264565b610d8b565b005b6104ad60048036038101906104a8919061339a565b610da1565b005b3480156104bb57600080fd5b506104d660048036038101906104d1919061339a565b610f0c565b6040516104e39190613c13565b60405180910390f35b3480156104f857600080fd5b50610513600480360381019061050e919061339a565b610fbe565b6040516105239493929190613b07565b60405180910390f35b34801561053857600080fd5b50610553600480360381019061054e9190613423565b6110a6565b6040516105609190613c13565b60405180910390f35b34801561057557600080fd5b50610590600480360381019061058b91906131e1565b611165565b005b6105ac60048036038101906105a7919061333e565b6111c7565b6040516105b99190613db5565b60405180910390f35b3480156105ce57600080fd5b506105e960048036038101906105e4919061339a565b611524565b6040516105f69190613c13565b60405180910390f35b34801561060b57600080fd5b50610614611637565b6040516106219190613bb4565b60405180910390f35b34801561063657600080fd5b50610651600480360381019061064c919061339a565b611779565b60405161065e9190613bd6565b60405180910390f35b34801561067357600080fd5b5061068e600480360381019061068991906132a4565b611879565b60405161069d93929190613dd0565b60405180910390f35b3480156106b257600080fd5b506106cd60048036038101906106c8919061339a565b611948565b6040516106dc93929190613dd0565b60405180910390f35b3480156106f157600080fd5b5061070c6004803603810190610707919061314e565b611a0a565b6040516107199190613bf8565b60405180910390f35b34801561072e57600080fd5b50610737611a9e565b6040516107479493929190613b53565b60405180910390f35b6000634906490660e01b7bffffffffffffffffffffffffffffffffffffffffffffffffffffffff1916827bffffffffffffffffffffffffffffffffffffffffffffffffffffffff191614806107aa57506107a982611dcb565b5b9050919050565b6060600080546107c0906140ce565b80601f01602080910402602001604051908101604052809291908181526020018280546107ec906140ce565b80156108395780601f1061080e57610100808354040283529160200191610839565b820191906000526020600020905b81548152906001019060200180831161081c57829003601f168201915b5050505050905090565b600061084e82611ead565b6004600083815260200190815260200160002060009054906101000a900473ffffffffffffffffffffffffffffffffffffffff169050919050565b600061089482610b1b565b90508073ffffffffffffffffffffffffffffffffffffffff168373ffffffffffffffffffffffffffffffffffffffff161415610905576040517f08c379a00000000000000000000000000000000000000000000000000000000081526004016108fc90613d75565b60405180910390fd5b8073ffffffffffffffffffffffffffffffffffffffff16610924611ef8565b73ffffffffffffffffffffffffffffffffffffffff16148061095357506109528161094d611ef8565b611a0a565b5b610992576040517f08c379a000000000000000000000000000000000000000000000000000000000815260040161098990613d95565b60405180910390fd5b61099c8383611f00565b505050565b6109b26109ac611ef8565b82611fb9565b6109f1576040517f08c379a00000000000000000000000000000000000000000000000000000000081526004016109e890613c35565b60405180910390fd5b6109fc83838361204e565b505050565b60007f0000000000000000000000000000000000000000000000000000000000000000905090565b610a4483838360405180602001604052806000815250611165565b505050565b600d6020528060005260406000206000915090508060000160009054906101000a900473ffffffffffffffffffffffffffffffffffffffff1690806001018054610a92906140ce565b80601f0160208091040260200160405190810160405280929190818152602001828054610abe906140ce565b8015610b0b5780601f10610ae057610100808354040283529160200191610b0b565b820191906000526020600020905b815481529060010190602001808311610aee57829003601f168201915b5050505050908060020154905083565b600080610b2783612348565b9050600073ffffffffffffffffffffffffffffffffffffffff168173ffffffffffffffffffffffffffffffffffffffff161415610b99576040517f08c379a0000000000000000000000000000000000000000000000000000000008152600401610b9090613d55565b60405180910390fd5b80915050919050565b600b6000838152602001908152602001600020604051806020016040528083815250908060018154018082558091505060019003906000526020600020016000909190919091506000820151816000019080519060200190610c05929190612dcf565b5050505050565b60008073ffffffffffffffffffffffffffffffffffffffff168273ffffffffffffffffffffffffffffffffffffffff161415610c7d576040517f08c379a0000000000000000000000000000000000000000000000000000000008152600401610c7490613cf5565b60405180910390fd5b600360008373ffffffffffffffffffffffffffffffffffffffff1673ffffffffffffffffffffffffffffffffffffffff168152602001908152602001600020549050919050565b6000610cd06007612385565b905090565b7f000000000000000000000000000000000000000000000000000000000000000081565b606060018054610d08906140ce565b80601f0160208091040260200160405190810160405280929190818152602001828054610d34906140ce565b8015610d815780601f10610d5657610100808354040283529160200191610d81565b820191906000526020600020905b815481529060010190602001808311610d6457829003601f168201915b5050505050905090565b610d9d610d96611ef8565b8383612393565b5050565b610dab6007612500565b6000610db76007612385565b9050610dc33382612516565b610e6b81600d60008581526020019081526020016000206001018054610de8906140ce565b80601f0160208091040260200160405190810160405280929190818152602001828054610e14906140ce565b8015610e615780601f10610e3657610100808354040283529160200191610e61565b820191906000526020600020905b815481529060010190602001808311610e4457829003601f168201915b5050505050612534565b600d600083815260200190815260200160002060000160009054906101000a900473ffffffffffffffffffffffffffffffffffffffff1673ffffffffffffffffffffffffffffffffffffffff166108fc600d6000858152602001908152602001600020600201549081150290604051600060405180830381858888f19350505050158015610efd573d6000803e3d6000fd5b50610f086007612500565b5050565b600a8181548110610f1c57600080fd5b90600052602060002001600091509050806000018054610f3b906140ce565b80601f0160208091040260200160405190810160405280929190818152602001828054610f67906140ce565b8015610fb45780601f10610f8957610100808354040283529160200191610fb4565b820191906000526020600020905b815481529060010190602001808311610f9757829003601f168201915b5050505050905081565b60088181548110610fce57600080fd5b90600052602060002090600402016000915090508060000160009054906101000a900473ffffffffffffffffffffffffffffffffffffffff169080600101549080600201805461101d906140ce565b80601f0160208091040260200160405190810160405280929190818152602001828054611049906140ce565b80156110965780601f1061106b57610100808354040283529160200191611096565b820191906000526020600020905b81548152906001019060200180831161107957829003601f168201915b5050505050908060030154905084565b600b60205281600052604060002081815481106110c257600080fd5b90600052602060002001600091509150508060000180546110e2906140ce565b80601f016020809104026020016040519081016040528092919081815260200182805461110e906140ce565b801561115b5780601f106111305761010080835404028352916020019161115b565b820191906000526020600020905b81548152906001019060200180831161113e57829003601f168201915b5050505050905081565b611176611170611ef8565b83611fb9565b6111b5576040517f08c379a00000000000000000000000000000000000000000000000000000000081526004016111ac90613c35565b60405180910390fd5b6111c1848484846125df565b50505050565b60003073ffffffffffffffffffffffffffffffffffffffff166108fc7f00000000000000000000000000000000000000000000000000000000000000009081150290604051600060405180830381858888f19350505050506112296007612500565b60006112356007612385565b90506112413382612516565b61124b8185612534565b600860405180608001604052803373ffffffffffffffffffffffffffffffffffffffff16815260200183815260200186815260200185815250908060018154018082558091505060019003906000526020600020906004020160009091909190915060008201518160000160006101000a81548173ffffffffffffffffffffffffffffffffffffffff021916908373ffffffffffffffffffffffffffffffffffffffff16021790555060208201518160010155604082015181600201908051906020019061131a929190612dcf565b50606082015181600301555050600c60003373ffffffffffffffffffffffffffffffffffffffff1673ffffffffffffffffffffffffffffffffffffffff1681526020019081526020016000206040518060600160405280838152602001858152602001868152509080600181540180825580915050600190039060005260206000209060030201600090919091909150600082015181600001556020820151816001015560408201518160020190805190602001906113da929190612dcf565b50505060405180606001604052803373ffffffffffffffffffffffffffffffffffffffff16815260200185815260200184815250600d600083815260200190815260200160002060008201518160000160006101000a81548173ffffffffffffffffffffffffffffffffffffffff021916908373ffffffffffffffffffffffffffffffffffffffff1602179055506020820151816001019080519060200190611484929190612dcf565b5060408201518160020155905050600a6040518060200160405280604051806020016040528060008152508152509080600181540180825580915050600190039060005260206000200160009091909190915060008201518160000190805190602001906114f3929190612dcf565b505050600a600b6000838152602001908152602001600020908054611519929190612e55565b508091505092915050565b606061152f82611ead565b600060066000848152602001908152602001600020805461154f906140ce565b80601f016020809104026020016040519081016040528092919081815260200182805461157b906140ce565b80156115c85780601f1061159d576101008083540402835291602001916115c8565b820191906000526020600020905b8154815290600101906020018083116115ab57829003601f168201915b5050505050905060006115d961263b565b90506000815114156115ef578192505050611632565b60008251111561162457808260405160200161160c929190613a3e565b60405160208183030381529060405292505050611632565b61162d84612652565b925050505b919050565b6060600c60003373ffffffffffffffffffffffffffffffffffffffff1673ffffffffffffffffffffffffffffffffffffffff168152602001908152602001600020805480602002602001604051908101604052809291908181526020016000905b82821015611770578382906000526020600020906003020160405180606001604052908160008201548152602001600182015481526020016002820180546116df906140ce565b80601f016020809104026020016040519081016040528092919081815260200182805461170b906140ce565b80156117585780601f1061172d57610100808354040283529160200191611758565b820191906000526020600020905b81548152906001019060200180831161173b57829003601f168201915b50505050508152505081526020019060010190611698565b50505050905090565b6060600b6000838152602001908152602001600020805480602002602001604051908101604052809291908181526020016000905b8282101561186e578382906000526020600020016040518060200160405290816000820180546117dd906140ce565b80601f0160208091040260200160405190810160405280929190818152602001828054611809906140ce565b80156118565780601f1061182b57610100808354040283529160200191611856565b820191906000526020600020905b81548152906001019060200180831161183957829003601f168201915b505050505081525050815260200190600101906117ae565b505050509050919050565b600c602052816000526040600020818154811061189557600080fd5b9060005260206000209060030201600091509150508060000154908060010154908060020180546118c5906140ce565b80601f01602080910402602001604051908101604052809291908181526020018280546118f1906140ce565b801561193e5780601f106119135761010080835404028352916020019161193e565b820191906000526020600020905b81548152906001019060200180831161192157829003601f168201915b5050505050905083565b6009818154811061195857600080fd5b9060005260206000209060030201600091509050806000015490806001015490806002018054611987906140ce565b80601f01602080910402602001604051908101604052809291908181526020018280546119b3906140ce565b8015611a005780601f106119d557610100808354040283529160200191611a00565b820191906000526020600020905b8154815290600101906020018083116119e357829003601f168201915b5050505050905083565b6000600560008473ffffffffffffffffffffffffffffffffffffffff1673ffffffffffffffffffffffffffffffffffffffff16815260200190815260200160002060008373ffffffffffffffffffffffffffffffffffffffff1673ffffffffffffffffffffffffffffffffffffffff16815260200190815260200160002060009054906101000a900460ff16905092915050565b6060806060806000611ab06007612385565b67ffffffffffffffff811115611ac957611ac8614236565b5b604051908082528060200260200182016040528015611af75781602001602082028036833780820191505090505b5090506000611b066007612385565b67ffffffffffffffff811115611b1f57611b1e614236565b5b604051908082528060200260200182016040528015611b4d5781602001602082028036833780820191505090505b5090506000611b5c6007612385565b67ffffffffffffffff811115611b7557611b74614236565b5b604051908082528060200260200182016040528015611ba857816020015b6060815260200190600190039081611b935790505b5090506000611bb76007612385565b67ffffffffffffffff811115611bd057611bcf614236565b5b604051908082528060200260200182016040528015611bfe5781602001602082028036833780820191505090505b50905060005b611c0e6007612385565b811015611db457600060088281548110611c2b57611c2a614207565b5b906000526020600020906004020190508060000160009054906101000a900473ffffffffffffffffffffffffffffffffffffffff16868381518110611c7357611c72614207565b5b602002602001019073ffffffffffffffffffffffffffffffffffffffff16908173ffffffffffffffffffffffffffffffffffffffff16815250508060010154858381518110611cc557611cc4614207565b5b602002602001018181525050806002018054611ce0906140ce565b80601f0160208091040260200160405190810160405280929190818152602001828054611d0c906140ce565b8015611d595780601f10611d2e57610100808354040283529160200191611d59565b820191906000526020600020905b815481529060010190602001808311611d3c57829003601f168201915b5050505050848381518110611d7157611d70614207565b5b60200260200101819052508060030154838381518110611d9457611d93614207565b5b602002602001018181525050508080611dac90614131565b915050611c04565b508383838397509750975097505050505090919293565b60007f80ac58cd000000000000000000000000000000000000000000000000000000007bffffffffffffffffffffffffffffffffffffffffffffffffffffffff1916827bffffffffffffffffffffffffffffffffffffffffffffffffffffffff19161480611e9657507f5b5e139f000000000000000000000000000000000000000000000000000000007bffffffffffffffffffffffffffffffffffffffffffffffffffffffff1916827bffffffffffffffffffffffffffffffffffffffffffffffffffffffff1916145b80611ea65750611ea5826126ba565b5b9050919050565b611eb681612724565b611ef5576040517f08c379a0000000000000000000000000000000000000000000000000000000008152600401611eec90613d55565b60405180910390fd5b50565b600033905090565b816004600083815260200190815260200160002060006101000a81548173ffffffffffffffffffffffffffffffffffffffff021916908373ffffffffffffffffffffffffffffffffffffffff160217905550808273ffffffffffffffffffffffffffffffffffffffff16611f7383610b1b565b73ffffffffffffffffffffffffffffffffffffffff167f8c5be1e5ebec7d5bd14f71427d1e84f3dd0314c0f7b2291e5b200ac8c7c3b92560405160405180910390a45050565b600080611fc583610b1b565b90508073ffffffffffffffffffffffffffffffffffffffff168473ffffffffffffffffffffffffffffffffffffffff16148061200757506120068185611a0a565b5b8061204557508373ffffffffffffffffffffffffffffffffffffffff1661202d84610843565b73ffffffffffffffffffffffffffffffffffffffff16145b91505092915050565b8273ffffffffffffffffffffffffffffffffffffffff1661206e82610b1b565b73ffffffffffffffffffffffffffffffffffffffff16146120c4576040517f08c379a00000000000000000000000000000000000000000000000000000000081526004016120bb90613c75565b60405180910390fd5b600073ffffffffffffffffffffffffffffffffffffffff168273ffffffffffffffffffffffffffffffffffffffff161415612134576040517f08c379a000000000000000000000000000000000000000000000000000000000815260040161212b90613cb5565b60405180910390fd5b6121418383836001612765565b8273ffffffffffffffffffffffffffffffffffffffff1661216182610b1b565b73ffffffffffffffffffffffffffffffffffffffff16146121b7576040517f08c379a00000000000000000000000000000000000000000000000000000000081526004016121ae90613c75565b60405180910390fd5b6004600082815260200190815260200160002060006101000a81549073ffffffffffffffffffffffffffffffffffffffff02191690556001600360008573ffffffffffffffffffffffffffffffffffffffff1673ffffffffffffffffffffffffffffffffffffffff168152602001908152602001600020600082825403925050819055506001600360008473ffffffffffffffffffffffffffffffffffffffff1673ffffffffffffffffffffffffffffffffffffffff16815260200190815260200160002060008282540192505081905550816002600083815260200190815260200160002060006101000a81548173ffffffffffffffffffffffffffffffffffffffff021916908373ffffffffffffffffffffffffffffffffffffffff160217905550808273ffffffffffffffffffffffffffffffffffffffff168473ffffffffffffffffffffffffffffffffffffffff167fddf252ad1be2c89b69c2b068fc378daa952ba7f163c4a11628f55a4df523b3ef60405160405180910390a4612343838383600161276b565b505050565b60006002600083815260200190815260200160002060009054906101000a900473ffffffffffffffffffffffffffffffffffffffff169050919050565b600081600001549050919050565b8173ffffffffffffffffffffffffffffffffffffffff168373ffffffffffffffffffffffffffffffffffffffff161415612402576040517f08c379a00000000000000000000000000000000000000000000000000000000081526004016123f990613cd5565b60405180910390fd5b80600560008573ffffffffffffffffffffffffffffffffffffffff1673ffffffffffffffffffffffffffffffffffffffff16815260200190815260200160002060008473ffffffffffffffffffffffffffffffffffffffff1673ffffffffffffffffffffffffffffffffffffffff16815260200190815260200160002060006101000a81548160ff0219169083151502179055508173ffffffffffffffffffffffffffffffffffffffff168373ffffffffffffffffffffffffffffffffffffffff167f17307eab39ab6107e8899845ad3d59bd9653f200f220920489ca2b5937696c31836040516124f39190613bf8565b60405180910390a3505050565b6001816000016000828254019250508190555050565b612530828260405180602001604052806000815250612771565b5050565b61253d82612724565b61257c576040517f08c379a000000000000000000000000000000000000000000000000000000000815260040161257390613d15565b60405180910390fd5b806006600084815260200190815260200160002090805190602001906125a3929190612dcf565b507ff8e1a15aba9398e019f0b49df1a4fde98ee17ae345cb5f6b5e2c27f5033e8ce7826040516125d39190613db5565b60405180910390a15050565b6125ea84848461204e565b6125f6848484846127cc565b612635576040517f08c379a000000000000000000000000000000000000000000000000000000000815260040161262c90613c55565b60405180910390fd5b50505050565b606060405180602001604052806000815250905090565b606061265d82611ead565b600061266761263b565b9050600081511161268757604051806020016040528060008152506126b2565b8061269184612963565b6040516020016126a2929190613a3e565b6040516020818303038152906040525b915050919050565b60007f01ffc9a7000000000000000000000000000000000000000000000000000000007bffffffffffffffffffffffffffffffffffffffffffffffffffffffff1916827bffffffffffffffffffffffffffffffffffffffffffffffffffffffff1916149050919050565b60008073ffffffffffffffffffffffffffffffffffffffff1661274683612348565b73ffffffffffffffffffffffffffffffffffffffff1614159050919050565b50505050565b50505050565b61277b8383612a3b565b61278860008484846127cc565b6127c7576040517f08c379a00000000000000000000000000000000000000000000000000000000081526004016127be90613c55565b60405180910390fd5b505050565b60006127ed8473ffffffffffffffffffffffffffffffffffffffff16612c59565b15612956578373ffffffffffffffffffffffffffffffffffffffff1663150b7a02612816611ef8565b8786866040518563ffffffff1660e01b81526004016128389493929190613abb565b602060405180830381600087803b15801561285257600080fd5b505af192505050801561288357506040513d601f19601f820116820180604052508101906128809190613311565b60015b612906573d80600081146128b3576040519150601f19603f3d011682016040523d82523d6000602084013e6128b8565b606091505b506000815114156128fe576040517f08c379a00000000000000000000000000000000000000000000000000000000081526004016128f590613c55565b60405180910390fd5b805181602001fd5b63150b7a0260e01b7bffffffffffffffffffffffffffffffffffffffffffffffffffffffff1916817bffffffffffffffffffffffffffffffffffffffffffffffffffffffff19161491505061295b565b600190505b949350505050565b60606000600161297284612c7c565b01905060008167ffffffffffffffff81111561299157612990614236565b5b6040519080825280601f01601f1916602001820160405280156129c35781602001600182028036833780820191505090505b509050600082602001820190505b600115612a30578080600190039150507f3031323334353637383961626364656600000000000000000000000000000000600a86061a8153600a8581612a1a57612a196141a9565b5b0494506000851415612a2b57612a30565b6129d1565b819350505050919050565b600073ffffffffffffffffffffffffffffffffffffffff168273ffffffffffffffffffffffffffffffffffffffff161415612aab576040517f08c379a0000000000000000000000000000000000000000000000000000000008152600401612aa290613d35565b60405180910390fd5b612ab481612724565b15612af4576040517f08c379a0000000000000000000000000000000000000000000000000000000008152600401612aeb90613c95565b60405180910390fd5b612b02600083836001612765565b612b0b81612724565b15612b4b576040517f08c379a0000000000000000000000000000000000000000000000000000000008152600401612b4290613c95565b60405180910390fd5b6001600360008473ffffffffffffffffffffffffffffffffffffffff1673ffffffffffffffffffffffffffffffffffffffff16815260200190815260200160002060008282540192505081905550816002600083815260200190815260200160002060006101000a81548173ffffffffffffffffffffffffffffffffffffffff021916908373ffffffffffffffffffffffffffffffffffffffff160217905550808273ffffffffffffffffffffffffffffffffffffffff16600073ffffffffffffffffffffffffffffffffffffffff167fddf252ad1be2c89b69c2b068fc378daa952ba7f163c4a11628f55a4df523b3ef60405160405180910390a4612c5560008383600161276b565b5050565b6000808273ffffffffffffffffffffffffffffffffffffffff163b119050919050565b600080600090507a184f03e93ff9f4daa797ed6e38ed64bf6a1f0100000000000000008310612cda577a184f03e93ff9f4daa797ed6e38ed64bf6a1f0100000000000000008381612cd057612ccf6141a9565b5b0492506040810190505b6d04ee2d6d415b85acef81000000008310612d17576d04ee2d6d415b85acef81000000008381612d0d57612d0c6141a9565b5b0492506020810190505b662386f26fc100008310612d4657662386f26fc100008381612d3c57612d3b6141a9565b5b0492506010810190505b6305f5e1008310612d6f576305f5e1008381612d6557612d646141a9565b5b0492506008810190505b6127108310612d94576127108381612d8a57612d896141a9565b5b0492506004810190505b60648310612db75760648381612dad57612dac6141a9565b5b0492506002810190505b600a8310612dc6576001810190505b80915050919050565b828054612ddb906140ce565b90600052602060002090601f016020900481019282612dfd5760008555612e44565b82601f10612e1657805160ff1916838001178555612e44565b82800160010185558215612e44579182015b82811115612e43578251825591602001919060010190612e28565b5b509050612e519190612ec7565b5090565b828054828255906000526020600020908101928215612eb65760005260206000209182015b82811115612eb55782826000820181600001908054612e98906140ce565b612ea3929190612ee4565b50505091600101919060010190612e7a565b5b509050612ec39190612f71565b5090565b5b80821115612ee0576000816000905550600101612ec8565b5090565b828054612ef0906140ce565b90600052602060002090601f016020900481019282612f125760008555612f60565b82601f10612f235780548555612f60565b82800160010185558215612f6057600052602060002091601f016020900482015b82811115612f5f578254825591600101919060010190612f44565b5b509050612f6d9190612ec7565b5090565b5b80821115612f945760008082016000612f8b9190612f98565b50600101612f72565b5090565b508054612fa4906140ce565b6000825580601f10612fb65750612fd5565b601f016020900490600052602060002090810190612fd49190612ec7565b5b50565b6000612feb612fe684613e33565b613e0e565b9050828152602081018484840111156130075761300661426a565b5b61301284828561408c565b509392505050565b600061302d61302884613e64565b613e0e565b9050828152602081018484840111156130495761304861426a565b5b61305484828561408c565b509392505050565b60008135905061306b816145a6565b92915050565b600081359050613080816145bd565b92915050565b600081359050613095816145d4565b92915050565b6000815190506130aa816145d4565b92915050565b600082601f8301126130c5576130c4614265565b5b81356130d5848260208601612fd8565b91505092915050565b600082601f8301126130f3576130f2614265565b5b813561310384826020860161301a565b91505092915050565b60008135905061311b816145eb565b92915050565b60006020828403121561313757613136614274565b5b60006131458482850161305c565b91505092915050565b6000806040838503121561316557613164614274565b5b60006131738582860161305c565b92505060206131848582860161305c565b9150509250929050565b6000806000606084860312156131a7576131a6614274565b5b60006131b58682870161305c565b93505060206131c68682870161305c565b92505060406131d78682870161310c565b9150509250925092565b600080600080608085870312156131fb576131fa614274565b5b60006132098782880161305c565b945050602061321a8782880161305c565b935050604061322b8782880161310c565b925050606085013567ffffffffffffffff81111561324c5761324b61426f565b5b613258878288016130b0565b91505092959194509250565b6000806040838503121561327b5761327a614274565b5b60006132898582860161305c565b925050602061329a85828601613071565b9150509250929050565b600080604083850312156132bb576132ba614274565b5b60006132c98582860161305c565b92505060206132da8582860161310c565b9150509250929050565b6000602082840312156132fa576132f9614274565b5b600061330884828501613086565b91505092915050565b60006020828403121561332757613326614274565b5b60006133358482850161309b565b91505092915050565b6000806040838503121561335557613354614274565b5b600083013567ffffffffffffffff8111156133735761337261426f565b5b61337f858286016130de565b92505060206133908582860161310c565b9150509250929050565b6000602082840312156133b0576133af614274565b5b60006133be8482850161310c565b91505092915050565b600080604083850312156133de576133dd614274565b5b60006133ec8582860161310c565b925050602083013567ffffffffffffffff81111561340d5761340c61426f565b5b613419858286016130de565b9150509250929050565b6000806040838503121561343a57613439614274565b5b60006134488582860161310c565b92505060206134598582860161310c565b9150509250929050565b600061346f83836134de565b60208301905092915050565b6000613487838361375f565b905092915050565b600061349b83836139a6565b905092915050565b60006134af83836139f6565b905092915050565b60006134c38383613a20565b60208301905092915050565b6134d881614018565b82525050565b6134e781614006565b82525050565b6134f681614006565b82525050565b600061350782613ee5565b6135118185613f73565b935061351c83613e95565b8060005b8381101561354d5781516135348882613463565b975061353f83613f32565b925050600181019050613520565b5085935050505092915050565b600061356582613ef0565b61356f8185613f84565b93508360208202850161358185613ea5565b8060005b858110156135bd578484038952815161359e858261347b565b94506135a983613f3f565b925060208a01995050600181019050613585565b50829750879550505050505092915050565b60006135da82613efb565b6135e48185613f95565b9350836020820285016135f685613eb5565b8060005b858110156136325784840389528151613613858261348f565b945061361e83613f4c565b925060208a019950506001810190506135fa565b50829750879550505050505092915050565b600061364f82613f06565b6136598185613fa6565b93508360208202850161366b85613ec5565b8060005b858110156136a7578484038952815161368885826134a3565b945061369383613f59565b925060208a0199505060018101905061366f565b50829750879550505050505092915050565b60006136c482613f11565b6136ce8185613fb7565b93506136d983613ed5565b8060005b8381101561370a5781516136f188826134b7565b97506136fc83613f66565b9250506001810190506136dd565b5085935050505092915050565b6137208161402a565b82525050565b600061373182613f1c565b61373b8185613fc8565b935061374b81856020860161409b565b61375481614279565b840191505092915050565b600061376a82613f27565b6137748185613fd9565b935061378481856020860161409b565b61378d81614279565b840191505092915050565b60006137a382613f27565b6137ad8185613fea565b93506137bd81856020860161409b565b6137c681614279565b840191505092915050565b60006137dc82613f27565b6137e68185613ffb565b93506137f681856020860161409b565b80840191505092915050565b600061380f602d83613fea565b915061381a8261428a565b604082019050919050565b6000613832603283613fea565b915061383d826142d9565b604082019050919050565b6000613855602583613fea565b915061386082614328565b604082019050919050565b6000613878601c83613fea565b915061388382614377565b602082019050919050565b600061389b602483613fea565b91506138a6826143a0565b604082019050919050565b60006138be601983613fea565b91506138c9826143ef565b602082019050919050565b60006138e1602983613fea565b91506138ec82614418565b604082019050919050565b6000613904602e83613fea565b915061390f82614467565b604082019050919050565b6000613927602083613fea565b9150613932826144b6565b602082019050919050565b600061394a601883613fea565b9150613955826144df565b602082019050919050565b600061396d602183613fea565b915061397882614508565b604082019050919050565b6000613990603d83613fea565b915061399b82614557565b604082019050919050565b60006060830160008301516139be6000860182613a20565b5060208301516139d16020860182613a20565b50604083015184820360408601526139e9828261375f565b9150508091505092915050565b60006020830160008301518482036000860152613a13828261375f565b9150508091505092915050565b613a2981614082565b82525050565b613a3881614082565b82525050565b6000613a4a82856137d1565b9150613a5682846137d1565b91508190509392505050565b6000602082019050613a7760008301846134ed565b92915050565b6000606082019050613a9260008301866134cf565b8181036020830152613aa48185613798565b9050613ab36040830184613a2f565b949350505050565b6000608082019050613ad060008301876134ed565b613add60208301866134ed565b613aea6040830185613a2f565b8181036060830152613afc8184613726565b905095945050505050565b6000608082019050613b1c60008301876134ed565b613b296020830186613a2f565b8181036040830152613b3b8185613798565b9050613b4a6060830184613a2f565b95945050505050565b60006080820190508181036000830152613b6d81876134fc565b90508181036020830152613b8181866136b9565b90508181036040830152613b95818561355a565b90508181036060830152613ba981846136b9565b905095945050505050565b60006020820190508181036000830152613bce81846135cf565b905092915050565b60006020820190508181036000830152613bf08184613644565b905092915050565b6000602082019050613c0d6000830184613717565b92915050565b60006020820190508181036000830152613c2d8184613798565b905092915050565b60006020820190508181036000830152613c4e81613802565b9050919050565b60006020820190508181036000830152613c6e81613825565b9050919050565b60006020820190508181036000830152613c8e81613848565b9050919050565b60006020820190508181036000830152613cae8161386b565b9050919050565b60006020820190508181036000830152613cce8161388e565b9050919050565b60006020820190508181036000830152613cee816138b1565b9050919050565b60006020820190508181036000830152613d0e816138d4565b9050919050565b60006020820190508181036000830152613d2e816138f7565b9050919050565b60006020820190508181036000830152613d4e8161391a565b9050919050565b60006020820190508181036000830152613d6e8161393d565b9050919050565b60006020820190508181036000830152613d8e81613960565b9050919050565b60006020820190508181036000830152613dae81613983565b9050919050565b6000602082019050613dca6000830184613a2f565b92915050565b6000606082019050613de56000830186613a2f565b613df26020830185613a2f565b8181036040830152613e048184613798565b9050949350505050565b6000613e18613e29565b9050613e248282614100565b919050565b6000604051905090565b600067ffffffffffffffff821115613e4e57613e4d614236565b5b613e5782614279565b9050602081019050919050565b600067ffffffffffffffff821115613e7f57613e7e614236565b5b613e8882614279565b9050602081019050919050565b6000819050602082019050919050565b6000819050602082019050919050565b6000819050602082019050919050565b6000819050602082019050919050565b6000819050602082019050919050565b600081519050919050565b600081519050919050565b600081519050919050565b600081519050919050565b600081519050919050565b600081519050919050565b600081519050919050565b6000602082019050919050565b6000602082019050919050565b6000602082019050919050565b6000602082019050919050565b6000602082019050919050565b600082825260208201905092915050565b600082825260208201905092915050565b600082825260208201905092915050565b600082825260208201905092915050565b600082825260208201905092915050565b600082825260208201905092915050565b600082825260208201905092915050565b600082825260208201905092915050565b600081905092915050565b600061401182614062565b9050919050565b600061402382614062565b9050919050565b60008115159050919050565b60007fffffffff0000000000000000000000000000000000000000000000000000000082169050919050565b600073ffffffffffffffffffffffffffffffffffffffff82169050919050565b6000819050919050565b82818337600083830152505050565b60005b838110156140b957808201518184015260208101905061409e565b838111156140c8576000848401525b50505050565b600060028204905060018216806140e657607f821691505b602082108114156140fa576140f96141d8565b5b50919050565b61410982614279565b810181811067ffffffffffffffff8211171561412857614127614236565b5b80604052505050565b600061413c82614082565b91507fffffffffffffffffffffffffffffffffffffffffffffffffffffffffffffffff82141561416f5761416e61417a565b5b600182019050919050565b7f4e487b7100000000000000000000000000000000000000000000000000000000600052601160045260246000fd5b7f4e487b7100000000000000000000000000000000000000000000000000000000600052601260045260246000fd5b7f4e487b7100000000000000000000000000000000000000000000000000000000600052602260045260246000fd5b7f4e487b7100000000000000000000000000000000000000000000000000000000600052603260045260246000fd5b7f4e487b7100000000000000000000000000000000000000000000000000000000600052604160045260246000fd5b600080fd5b600080fd5b600080fd5b600080fd5b6000601f19601f8301169050919050565b7f4552433732313a2063616c6c6572206973206e6f7420746f6b656e206f776e6560008201527f72206f7220617070726f76656400000000000000000000000000000000000000602082015250565b7f4552433732313a207472616e7366657220746f206e6f6e20455243373231526560008201527f63656976657220696d706c656d656e7465720000000000000000000000000000602082015250565b7f4552433732313a207472616e736665722066726f6d20696e636f72726563742060008201527f6f776e6572000000000000000000000000000000000000000000000000000000602082015250565b7f4552433732313a20746f6b656e20616c7265616479206d696e74656400000000600082015250565b7f4552433732313a207472616e7366657220746f20746865207a65726f2061646460008201527f7265737300000000000000000000000000000000000000000000000000000000602082015250565b7f4552433732313a20617070726f766520746f2063616c6c657200000000000000600082015250565b7f4552433732313a2061646472657373207a65726f206973206e6f74206120766160008201527f6c6964206f776e65720000000000000000000000000000000000000000000000602082015250565b7f45524337323155524953746f726167653a2055524920736574206f66206e6f6e60008201527f6578697374656e7420746f6b656e000000000000000000000000000000000000602082015250565b7f4552433732313a206d696e7420746f20746865207a65726f2061646472657373600082015250565b7f4552433732313a20696e76616c696420746f6b656e2049440000000000000000600082015250565b7f4552433732313a20617070726f76616c20746f2063757272656e74206f776e6560008201527f7200000000000000000000000000000000000000000000000000000000000000602082015250565b7f4552433732313a20617070726f76652063616c6c6572206973206e6f7420746f60008201527f6b656e206f776e6572206f7220617070726f76656420666f7220616c6c000000602082015250565b6145af81614006565b81146145ba57600080fd5b50565b6145c68161402a565b81146145d157600080fd5b50565b6145dd81614036565b81146145e857600080fd5b50565b6145f481614082565b81146145ff57600080fd5b5056fea264697066735822122049270964113be2dc4c95ddbf8797c08c68674dc481c4f822360545b6dab9b54764736f6c63430008070033",
  "devdoc": {
    "kind": "dev",
    "methods": {
      "approve(address,uint256)": {
        "details": "See {IERC721-approve}."
      },
      "balanceOf(address)": {
        "details": "See {IERC721-balanceOf}."
      },
      "getApproved(uint256)": {
        "details": "See {IERC721-getApproved}."
      },
      "isApprovedForAll(address,address)": {
        "details": "See {IERC721-isApprovedForAll}."
      },
      "name()": {
        "details": "See {IERC721Metadata-name}."
      },
      "ownerOf(uint256)": {
        "details": "See {IERC721-ownerOf}."
      },
      "safeTransferFrom(address,address,uint256)": {
        "details": "See {IERC721-safeTransferFrom}."
      },
      "safeTransferFrom(address,address,uint256,bytes)": {
        "details": "See {IERC721-safeTransferFrom}."
      },
      "setApprovalForAll(address,bool)": {
        "details": "See {IERC721-setApprovalForAll}."
      },
      "supportsInterface(bytes4)": {
        "details": "See {IERC165-supportsInterface}"
      },
      "symbol()": {
        "details": "See {IERC721Metadata-symbol}."
      },
      "tokenURI(uint256)": {
        "details": "See {IERC721Metadata-tokenURI}."
      },
      "transferFrom(address,address,uint256)": {
        "details": "See {IERC721-transferFrom}."
      }
    },
    "version": 1
  },
  "userdoc": {
    "kind": "user",
    "methods": {},
    "version": 1
  },
  "storageLayout": {
    "storage": [
      {
        "astId": 53,
        "contract": "contracts/SocialNetworkDapp.sol:SocialNetworkDapp",
        "label": "_name",
        "offset": 0,
        "slot": "0",
        "type": "t_string_storage"
      },
      {
        "astId": 55,
        "contract": "contracts/SocialNetworkDapp.sol:SocialNetworkDapp",
        "label": "_symbol",
        "offset": 0,
        "slot": "1",
        "type": "t_string_storage"
      },
      {
        "astId": 59,
        "contract": "contracts/SocialNetworkDapp.sol:SocialNetworkDapp",
        "label": "_owners",
        "offset": 0,
        "slot": "2",
        "type": "t_mapping(t_uint256,t_address)"
      },
      {
        "astId": 63,
        "contract": "contracts/SocialNetworkDapp.sol:SocialNetworkDapp",
        "label": "_balances",
        "offset": 0,
        "slot": "3",
        "type": "t_mapping(t_address,t_uint256)"
      },
      {
        "astId": 67,
        "contract": "contracts/SocialNetworkDapp.sol:SocialNetworkDapp",
        "label": "_tokenApprovals",
        "offset": 0,
        "slot": "4",
        "type": "t_mapping(t_uint256,t_address)"
      },
      {
        "astId": 73,
        "contract": "contracts/SocialNetworkDapp.sol:SocialNetworkDapp",
        "label": "_operatorApprovals",
        "offset": 0,
        "slot": "5",
        "type": "t_mapping(t_address,t_mapping(t_address,t_bool))"
      },
      {
        "astId": 1104,
        "contract": "contracts/SocialNetworkDapp.sol:SocialNetworkDapp",
        "label": "_tokenURIs",
        "offset": 0,
        "slot": "6",
        "type": "t_mapping(t_uint256,t_string_storage)"
      },
      {
        "astId": 2947,
        "contract": "contracts/SocialNetworkDapp.sol:SocialNetworkDapp",
        "label": "_tokenIds",
        "offset": 0,
        "slot": "7",
        "type": "t_struct(Counter)1629_storage"
      },
      {
        "astId": 2965,
        "contract": "contracts/SocialNetworkDapp.sol:SocialNetworkDapp",
        "label": "ListedNFT",
        "offset": 0,
        "slot": "8",
        "type": "t_array(t_struct(TotalNFT)2961_storage)dyn_storage"
      },
      {
        "astId": 2976,
        "contract": "contracts/SocialNetworkDapp.sol:SocialNetworkDapp",
        "label": "allUserNFT",
        "offset": 0,
        "slot": "9",
        "type": "t_array(t_struct(UserNFT)2972_storage)dyn_storage"
      },
      {
        "astId": 2990,
        "contract": "contracts/SocialNetworkDapp.sol:SocialNetworkDapp",
        "label": "COMMENT",
        "offset": 0,
        "slot": "10",
        "type": "t_array(t_struct(comments)2986_storage)dyn_storage"
      },
      {
        "astId": 2996,
        "contract": "contracts/SocialNetworkDapp.sol:SocialNetworkDapp",
        "label": "commenting",
        "offset": 0,
        "slot": "11",
        "type": "t_mapping(t_uint256,t_array(t_struct(comments)2986_storage)dyn_storage)"
      },
      {
        "astId": 3002,
        "contract": "contracts/SocialNetworkDapp.sol:SocialNetworkDapp",
        "label": "UserNFTDetails",
        "offset": 0,
        "slot": "12",
        "type": "t_mapping(t_address,t_array(t_struct(UserNFT)2972_storage)dyn_storage)"
      },
      {
        "astId": 3007,
        "contract": "contracts/SocialNetworkDapp.sol:SocialNetworkDapp",
        "label": "tokenBuyDetails",
        "offset": 0,
        "slot": "13",
        "type": "t_mapping(t_uint256,t_struct(tokenDetails)2983_storage)"
      }
    ],
    "types": {
      "t_address": {
        "encoding": "inplace",
        "label": "address",
        "numberOfBytes": "20"
      },
      "t_address_payable": {
        "encoding": "inplace",
        "label": "address payable",
        "numberOfBytes": "20"
      },
      "t_array(t_struct(TotalNFT)2961_storage)dyn_storage": {
        "base": "t_struct(TotalNFT)2961_storage",
        "encoding": "dynamic_array",
        "label": "struct SocialNetworkDapp.TotalNFT[]",
        "numberOfBytes": "32"
      },
      "t_array(t_struct(UserNFT)2972_storage)dyn_storage": {
        "base": "t_struct(UserNFT)2972_storage",
        "encoding": "dynamic_array",
        "label": "struct SocialNetworkDapp.UserNFT[]",
        "numberOfBytes": "32"
      },
      "t_array(t_struct(comments)2986_storage)dyn_storage": {
        "base": "t_struct(comments)2986_storage",
        "encoding": "dynamic_array",
        "label": "struct SocialNetworkDapp.comments[]",
        "numberOfBytes": "32"
      },
      "t_bool": {
        "encoding": "inplace",
        "label": "bool",
        "numberOfBytes": "1"
      },
      "t_mapping(t_address,t_array(t_struct(UserNFT)2972_storage)dyn_storage)": {
        "encoding": "mapping",
        "key": "t_address",
        "label": "mapping(address => struct SocialNetworkDapp.UserNFT[])",
        "numberOfBytes": "32",
        "value": "t_array(t_struct(UserNFT)2972_storage)dyn_storage"
      },
      "t_mapping(t_address,t_bool)": {
        "encoding": "mapping",
        "key": "t_address",
        "label": "mapping(address => bool)",
        "numberOfBytes": "32",
        "value": "t_bool"
      },
      "t_mapping(t_address,t_mapping(t_address,t_bool))": {
        "encoding": "mapping",
        "key": "t_address",
        "label": "mapping(address => mapping(address => bool))",
        "numberOfBytes": "32",
        "value": "t_mapping(t_address,t_bool)"
      },
      "t_mapping(t_address,t_uint256)": {
        "encoding": "mapping",
        "key": "t_address",
        "label": "mapping(address => uint256)",
        "numberOfBytes": "32",
        "value": "t_uint256"
      },
      "t_mapping(t_uint256,t_address)": {
        "encoding": "mapping",
        "key": "t_uint256",
        "label": "mapping(uint256 => address)",
        "numberOfBytes": "32",
        "value": "t_address"
      },
      "t_mapping(t_uint256,t_array(t_struct(comments)2986_storage)dyn_storage)": {
        "encoding": "mapping",
        "key": "t_uint256",
        "label": "mapping(uint256 => struct SocialNetworkDapp.comments[])",
        "numberOfBytes": "32",
        "value": "t_array(t_struct(comments)2986_storage)dyn_storage"
      },
      "t_mapping(t_uint256,t_string_storage)": {
        "encoding": "mapping",
        "key": "t_uint256",
        "label": "mapping(uint256 => string)",
        "numberOfBytes": "32",
        "value": "t_string_storage"
      },
      "t_mapping(t_uint256,t_struct(tokenDetails)2983_storage)": {
        "encoding": "mapping",
        "key": "t_uint256",
        "label": "mapping(uint256 => struct SocialNetworkDapp.tokenDetails)",
        "numberOfBytes": "32",
        "value": "t_struct(tokenDetails)2983_storage"
      },
      "t_string_storage": {
        "encoding": "bytes",
        "label": "string",
        "numberOfBytes": "32"
      },
      "t_struct(Counter)1629_storage": {
        "encoding": "inplace",
        "label": "struct Counters.Counter",
        "members": [
          {
            "astId": 1628,
            "contract": "contracts/SocialNetworkDapp.sol:SocialNetworkDapp",
            "label": "_value",
            "offset": 0,
            "slot": "0",
            "type": "t_uint256"
          }
        ],
        "numberOfBytes": "32"
      },
      "t_struct(TotalNFT)2961_storage": {
        "encoding": "inplace",
        "label": "struct SocialNetworkDapp.TotalNFT",
        "members": [
          {
            "astId": 2954,
            "contract": "contracts/SocialNetworkDapp.sol:SocialNetworkDapp",
            "label": "tokenOwner",
            "offset": 0,
            "slot": "0",
            "type": "t_address"
          },
          {
            "astId": 2956,
            "contract": "contracts/SocialNetworkDapp.sol:SocialNetworkDapp",
            "label": "tokenId",
            "offset": 0,
            "slot": "1",
            "type": "t_uint256"
          },
          {
            "astId": 2958,
            "contract": "contracts/SocialNetworkDapp.sol:SocialNetworkDapp",
            "label": "tokenURL",
            "offset": 0,
            "slot": "2",
            "type": "t_string_storage"
          },
          {
            "astId": 2960,
            "contract": "contracts/SocialNetworkDapp.sol:SocialNetworkDapp",
            "label": "tokenPrice",
            "offset": 0,
            "slot": "3",
            "type": "t_uint256"
          }
        ],
        "numberOfBytes": "128"
      },
      "t_struct(UserNFT)2972_storage": {
        "encoding": "inplace",
        "label": "struct SocialNetworkDapp.UserNFT",
        "members": [
          {
            "astId": 2967,
            "contract": "contracts/SocialNetworkDapp.sol:SocialNetworkDapp",
            "label": "tokenId",
            "offset": 0,
            "slot": "0",
            "type": "t_uint256"
          },
          {
            "astId": 2969,
            "contract": "contracts/SocialNetworkDapp.sol:SocialNetworkDapp",
            "label": "tokenPrice",
            "offset": 0,
            "slot": "1",
            "type": "t_uint256"
          },
          {
            "astId": 2971,
            "contract": "contracts/SocialNetworkDapp.sol:SocialNetworkDapp",
            "label": "tokenURL",
            "offset": 0,
            "slot": "2",
            "type": "t_string_storage"
          }
        ],
        "numberOfBytes": "96"
      },
      "t_struct(comments)2986_storage": {
        "encoding": "inplace",
        "label": "struct SocialNetworkDapp.comments",
        "members": [
          {
            "astId": 2985,
            "contract": "contracts/SocialNetworkDapp.sol:SocialNetworkDapp",
            "label": "comment",
            "offset": 0,
            "slot": "0",
            "type": "t_string_storage"
          }
        ],
        "numberOfBytes": "32"
      },
      "t_struct(tokenDetails)2983_storage": {
        "encoding": "inplace",
        "label": "struct SocialNetworkDapp.tokenDetails",
        "members": [
          {
            "astId": 2978,
            "contract": "contracts/SocialNetworkDapp.sol:SocialNetworkDapp",
            "label": "owner",
            "offset": 0,
            "slot": "0",
            "type": "t_address_payable"
          },
          {
            "astId": 2980,
            "contract": "contracts/SocialNetworkDapp.sol:SocialNetworkDapp",
            "label": "tokenURL",
            "offset": 0,
            "slot": "1",
            "type": "t_string_storage"
          },
          {
            "astId": 2982,
            "contract": "contracts/SocialNetworkDapp.sol:SocialNetworkDapp",
            "label": "price",
            "offset": 0,
            "slot": "2",
            "type": "t_uint256"
          }
        ],
        "numberOfBytes": "96"
      },
      "t_uint256": {
        "encoding": "inplace",
        "label": "uint256",
        "numberOfBytes": "32"
      }
    }
  }
}